:030000000209767C
:0C097600787FE4F6D8FD758111020800BE
:0C094A00D294D295D296D297AF09AE0895
:10095600E4FDFCC3ED9FEC9E5015E4FBFA0BBB00D7
:0F096600010ABA01F8BB7EF50DBD00010C80E45B
:01097500225F
:100800009007D07508037509E8E4F50AF50BF50CB7
:10081000F50DF50EF50FF510F511D290D291D2929B
:10082000D293309020E50B450A701AAF82AE831246
:100830000956309033D294C295C296C297750A0079
:10084000750B018023209020E50B450A601AAF82CA
:10085000AE8312095620901012094AC294C295C262
:1008600096C297E4F50AF50B309120E50D450C7022
:100870001AAF82AE83120956309133C294D295C218
:1008800096C297750C00750D018023209120E50D0F
:10089000450C601AAF82AE831209562091101209DE
:1008A0004AC294C295C296C297E4F50CF50D3092F7
:1008B00020E50F450E701AAF82AE831209563092B2
:1008C00033C294C295D296C297750E00750F0180FF
:1008D00023209220E50F450E601AAF82AE831209E5
:1008E0005620921012094AC294C295C296C297E449
:1008F000F50EF50F309324E5114510701EAF82AE52
:100900008312095620930302081AC294C295C29614
:10091000D29775100075110102081A30930302086E
:100920001AE5114510700302081AAF82AE8312094E
:100930005630930302081A12094AC294C295C2960D
:0A094000C297E4F510F51102081A41
:00000001FF
