:1008000050726573732027492720666F72204973E1
:1008100073756520616E642027522720666F7220F1
:1008200052657475726E0D0A00496E76616C69646A
:1008300020496E7075742120547279206167616956
:100840006E2E0D0A005265736F75726365732061B9
:100850007661696C61626C653A0D0A002D002000BA
:100860000D0A00456E746572205265736F75726370
:100870006520496E6465782028312D34293A0D0AA7
:1008800000496E76616C6964207265736F7572637E
:100890006520696E646578210D0A00456E74657285
:1008A000205175616E746974793A0D0A0052657150
:1008B000756573746564207265736F757263652006
:1008C000616C6C6F6361746564210D0A005265711F
:1008D000756573746564207265736F7572636520E6
:1008E0006E6F7420617661696C61626C652E2E2E6C
:1008F0000D0A0052657475726E6564207265736FBF
:1009000075726365207265636569766564210D0A99
:100910000052657475726E6564207265736F7572CE
:100920006365206F7574206F6620626F756E6473E7
:060930002E2E2E0D0A0020
:100B4F00C101C100100C44534F0041464700444DB2
:100B5F004D0044505300040805050806041C050504
:020B6F00080676
:100B8B00758920758DCC759850D28ED2ACD2AF2290
:080BB5008F993001FDC20122FD
:060B24007BFF7A087963F3
:100B2A008B238A248925AB23AA24A925120B726058
:100B3A00130525E5257002052414F9120B72FF121C
:050B4A000BB580E22262
:090BAB00E4FF3000FDC200AF9927
:010BB400221E
:03002300020B9B32
:100B9B00309905C299D20132309804C298D20032F2
:100AEC00120B8B120AA17BFF7A087900120B2A12C7
:100AFC000BABEF24AE601124E9600824F7600924E5
:100B0C0029700A120A3680DE1209C280D97BFF7A5C
:080B1C00087929120B2A80CE92
:100AA1007BFF7A087945120B2AE4F522E52275F0DD
:100AB10004A4240CF9E4FAFB120B2A7BFF7A0879CF
:100AC1005C120B2A741C2522F8E62430FF120BB5A8
:100AD1007BFF7A08795E120B2A0522E522C3940472
:0B0AE10040CA7BFF7A087960020B2AF4
:100A3600120B24120BABEF24CFF521C364809480F4
:100A46004008E5216480948440097BFF7A08798117
:100A5600020B2A7BFF7A08799B120B2A120BABEF4B
:100A660024D0FF741C2521F8E6FEFDEFFB3395E04C
:100A7600FAC3ED9BEA6480F87480984011741C25D3
:100A860021F8C3EE9FF67BFF7A0879AD80067BFFDF
:0A0A96007A0879CD120B2A120AA18A
:010AA0002233
:1009C200120B24120BABEF24CFF521C36480948069
:1009D2004008E5216480948440097BFF7A0879818C
:1009E200020B2A7BFF7A08799B120B2A120BABEFC0
:1009F20024D0FF741C2521F8E6FDEFFB3395E0FAC5
:100A0200ED2BFDE43AFC74082521F8E6FBD3ED9BBF
:100A12007480F86C985010741C2521F8EF26F67B30
:100A2200FF7A0879F380067BFF7A097911120B2A83
:030A3200120AA104
:010A3500229E
:03000000020936BC
:0C093600787FE4F6D8FD75812502097D6C
:10094200020AECE493A3F8E493A34003F68001F2D5
:1009520008DFF48029E493A3F85407240CC8C333B6
:10096200C4540F4420C8834004F456800146F6DF85
:10097200E4800B0102040810204080900B4FE47EBB
:10098200019360BCA3FF543F30E509541FFEE4937A
:10099200A360010ECF54C025E060A840B8E493A341
:1009A200FAE493A3F8E493A3C8C582C8CAC583CA6C
:1009B200F0A3C8C582C8CAC583CADFE9DEE780BE24
:010B71000083
:100B7200BB010689828A83E0225002E722BBFE0281
:090B8200E32289828A83E49322B4
:00000001FF
