:03000000020800F3
:0C080000787FE4F6D8FD758120020847DF
:10088C004C4344204F6B000D0A002A383035312080
:10089C0054657374732A0D0A00507265737320319A
:1008AC0020666F72204C434420746573740D0A00EB
:1008BC005072657373203220666F72204C45442051
:1008CC00746573740D0A00204C4344207465737472
:1008DC0065640D0A00204C4544207465737465648E
:1008EC000D0A00205072696E74696E6720330D0A10
:1008FC00002057726F6E67206B657920707265737C
:06090C007365640D0A0092
:040ACC00C101C100A3
:10098400E4F5A0C282C280C2817F38FE120A6612D8
:100994000A0B7F067E00120A66120A0B7F0C7E0089
:1009A400120A66120A0B7F017E00120A66120A0BF3
:0709B4007F807E00020A664D
:040A0B007F047E00E6
:100A0F00E4FDFCC3ED9FEC9E5015E4FBFA0BBB001D
:0F0A1F00010ABA01F8BB7EF50DBD00010C80E4A1
:010A2E0022A5
:100A6600C280C281D2828FA07F0A7E00120A0FC284
:020A76008222DA
:100A7800D280C281D2828FA07F0A7E00120A0FC262
:020A88008222C8
:1009E6008B098A0A890BAB09AA0AA90B120A4D6060
:1009F60013050BE50B7002050A14F9120A4DFF12D6
:050A06000A7880E222E5
:100A8A00758920758DCC759850D28ED2ACD2AF2292
:080AC4008F993001FDC20122EF
:0609BB007BFF7A0879932E
:1009C1008B098A0A890BAB09AA0AA90B120A4D6085
:1009D10013050BE50B7002050A14F9120A4DFF12FB
:0509E1000AC480E222BF
:090ABA00E4FF3000FDC200AF9919
:010AC3002210
:03002300020A9A34
:100A9A00309905C299D20132309804C298D20032F4
:100A2F007F807E00120A667BFF7A08798C1209E6B6
:0E0A3F007FD07E07120A0F7F017E00020A663A
:100AAA007590F07FE87E03120A0F75900F020A0F05
:10091200E4F50875900F120984120A8A1209BB7B4A
:10092200FF7A0879961209C11209BB7BFF7A08790E
:10093200A51209C17BFF7A0879BC1209C1120ABA51
:100942008F08E50824CE601214601A240270211266
:100952000A2F7BFF7A0879D3801C120AAA7BFF7ABE
:100962000879E18011120AAA7BFF7A0879EF8006E2
:100972007BFF7A0879FD1209C17F647E00120A0F9B
:0209820080BB38
:10080C00020912E493A3F8E493A34003F68001F2E7
:10081C0008DFF48029E493A3F85407240CC8C333ED
:10082C00C4540F4420C8834004F456800146F6DFBC
:10083C00E4800B0102040810204080900ACCE47E76
:10084C00019360BCA3FF543F30E509541FFEE493B1
:10085C00A360010ECF54C025E060A840B8E493A378
:10086C00FAE493A3F8E493A3C8C582C8CAC583CAA3
:10087C00F0A3C8C582C8CAC583CADFE9DEE780BE5B
:010AD0000025
:100A4D00BB010689828A83E0225002E722BBFE02A7
:090A5D00E32289828A83E49322DA
:00000001FF
