:030000000209737F
:0C097300787FE4F6D8FD7581250209BAF2
:100BC900536C61766520496E697469616C697A65EF
:090BD9000053756D2069732000C2
:100BE200C100020C00000610303030303000021913
:060BF2000000021B0001DF
:0C0C210075C33F43B104D2AF43C340226F
:0C0C2D0075C32F43B104D2AF43C3402273
:0C0C390075C33F43B104D2AF43C3402257
:080A86007F007E007D007C0072
:080A8E008F248E238D228C21A0
:100A9600C20078101208B4E48FC53000FDA918C250
:100AA60000AF24AE23AD22AC2178081208B48FC55E
:100AB6003000FDAB18C200E524FF8FC53000FDAD48
:100AC60018EB7B00FA7E00E97810C333CE33CED81C
:100AD600F92BFFEE3AFE7C00EF2DFFEC3EFE339540
:030AE600E0FDFC34
:010AE90022EA
:03004B00020BF9AC
:100BF900C0E0C0D0E5C454F02480700585C518D282
:060C090000D0D0D0E03263
:100B2800E4F5A0C282C280C2817F38FE120BB712E0
:100B38000B8A7F067E00120BB7120B8A7F0C7E0091
:100B4800120BB7120B8A7F017E00120BB7120B8AA9
:070B58007F807E00020BB755
:040B8A007F047E0066
:100B8E00E4FDFCC3ED9FEC9E5015E4FBFA0BBB009D
:0F0B9E00010ABA01F8BB7EF50DBD00010C80E421
:010BAD002225
:0608C7007B007A007910AD
:1008CD008E218F228B238A2489257C277D10120867
:1008DD005FEF2430120819AE21AF227C277D101254
:1008ED00085F7E037FE8CFCDCFCECCCE12085FEF71
:1008FD002430AB23AA24A92590000112082BAE2188
:10090D00AF227C037DE812085F7E007F64CFCDCFE0
:10091D00CECCCE12085FEF2430AB23AA24A92590AC
:10092D00000212082BAE21AF227C007D6412085FFD
:10093D007E007F0ACFCDCFCECCCE12085FEF243014
:10094D00AB23AA24A92590000312082BAE21AF22B8
:10095D007C007D0A12085FED2430AB23AA24A92563
:06096D0090000402082BBB
:090BAE007F01120BB77F807E006D
:100BB700C280C281D2828FA07F0A7E00120B8EC2B2
:020BC700822288
:100C0F00D280C281D2828FA07F0A7E00120B8EC249
:020C1F0082222F
:060B5F007B007A00791012
:100B65008B218A228923AB21AA22A923120800609E
:100B7500130523E5237002052214F9120800FF125C
:050B85000C0F80E222CC
:040AEA00AB07AA06A6
:100AEE00C3EB9402EA940050057E007F0222900030
:100AFE0002AF82AE83AD82AC8312084DD3EF9BEE74
:100B0E009A5012AF03AE0212085FED4C7004FE7FD6
:090B1E000222A380DC7E007F01AD
:010B270022AB
:1009FF00120C2D120B28E4F508F509F50AF50BF585
:100A0F0016F517FE120BAE7BFF7A0B79C9120B6529
:100A1F00120A868E088F091208C77E00120BAE12BB
:100A2F000B5F120A868E0A8F0B7F2B120C0FAF0BE8
:100A3F00AE0A1208C7120B5FE509250BF517E5087B
:100A4F00350AF516AF17FE120AEA8E0E8F0F7FC00A
:100A5F007E00120BB77BFF7A0B79DA120B65AF179B
:100A6F00AE161208C7120B5FAE0EAF0FEE3395E046
:070A7F00FDFC120A8E80FE4F
:10097F000209FFE493A3F8E493A34003F68001F286
:10098F0008DFF48029E493A3F85407240CC8C33379
:10099F00C4540F4420C8834004F456800146F6DF48
:1009AF00E4800B0102040810204080900BE2E47EEB
:1009BF00019360BCA3FF543F30E509541FFEE4933D
:1009CF00A360010ECF54C025E060A840B8E493A304
:1009DF00FAE493A3F8E493A3C8C582C8CAC583CA2F
:1009EF00F0A3C8C582C8CAC583CADFE9DEE780BEE7
:010BF80000FC
:10080000BB010689828A83E0225002E722BBFE02F6
:09081000E32289828A83E4932229
:10081900BB010689828A83F0225002F722BBFE01BE
:02082900F322B8
:10082B00F8BB010DE58229F582E5833AF583E8F003
:10083B00225006E92582C8F622BBFE05E92582C8AF
:02084B00F22297
:10084D00EF8DF0A4A8F0CF8CF0A428CE8DF0A42EBF
:02085D00FE2279
:10085F00BC000BBE0029EF8DF084FFADF022E4CC7D
:10086F00F875F008EF2FFFEE33FEEC33FCEE9DEC46
:10087F00984005FCEE9DFE0FD5F0E9E4CEFD22ED8C
:10088F00F8F5F0EE8420D21CFEADF075F008EF2FD6
:10089F00FFED33FD4007985006D5F0F222C398FDC7
:0508AF000FD5F0EA2264
:1008B400E8600FECC313FCED13FDEE13FEEF13FF22
:0308C400D8F12246
:00000001FF
