:03000000020C9C53
:0C0C9C00787FE4F6D8FD758138020CE387
:100DDD004761005265005361004468610050610035
:0E0DED004D610053696C656E6365004E6900D0
:0C0E0D000230000002320001023400013B
:100D6100E4F5A0C282C280C2817F38FE120DFB125F
:100D71000D987F067E00120DFB120D987F0C7E00F0
:100D8100120DFB120D987F017E00120DFB120D98C2
:070D91007F807E00020DFBD4
:040D98007F047E0056
:100D9C00E4FDFCC3ED9FEC9E5015E4FBFA0BBB008D
:0F0DAC00010ABA01F8BB7EF50DBD00010C80E411
:010DBB002215
:100DFB00C280C281D2828FA07F0A7E00120D9CC25C
:020E0B00822241
:0F0DBC007F01FE120DFB7F807E00120DFBAF0842
:100DCB00D280C281D2828FA07F0A7E00120D9CC27C
:020DDB00822272
:100D28007F017E00120DFB7F807E00120DFB7B0091
:040D38007A007908BC
:100D3C008B368A378938AB36AA37A938120AE8605D
:100D4C00130538E5387002053714F9120AE8FF125A
:050D5C000DCB80E22236
:03000B00020BEAFB
:100BEA00C0E0C0F0C083C082C0D0E5306003020C10
:100BFA0091E53114B409004003020C91900C14756C
:100C0A00F003A4C58325F0C58373020C2F020C3BA5
:100C1A00020C47020C53020C5F020C6B020C7702A7
:100C2A000C83020C8FB287758CEF758AB9D28C80CF
:100C3A0056B287758CF1758A88D28C804AB28775CC
:100C4A008CF2758AFBD28C803EB287758CF3758ADA
:100C5A00CBD28C8032B287758CF5758A26D28C807D
:100C6A0026B287758CF6758A3CD28C801AB2877543
:100C7A008CF7758A52D28C800EB287758CF7758A7A
:100C8A00DDD28C8002C287D0D0D082D083D0F0D07F
:020C9A00E03246
:10080000758901758CEF758AB9D2A9D2AFD28CC225
:10081000B7C2B6C2B5C2B4D2B0D2B1D2B2D2B3129C
:100820000D61C2B7C2B6C2B5C2B4D2B0D2B1D2B2F3
:10083000D2B3E4F52CF52D753200753301AE32E5F7
:1008400033A82D088005C333CE33CED8F9FFADB021
:10085000E4F518EF5DF51945186003020ACF7F141F
:10086000FE120D9CAE32E533A82D088005C333CEB1
:1008700033CED8F9FFADB0E4F518EF5DF5194518A2
:100880006003020ACFF52EF52FE52F452E600302F7
:100890000921C2B4D2B7D2B6D2B5AE32E533A82D53
:1008A000088005C333CE33CED8F9FFADB0E4F518D8
:1008B000EF5DF51945187069E52D452C7006750832
:1008C00041120DBCE52D6401452C701778087C00A1
:1008D000FD7BFF7A0D79DD120BCD7530007531038C
:1008E000120D28E52D6402452C701778087C00FD58
:1008F0007BFF7A0D79E0120BCD7530007531021255
:100900000D28E52D6403452C701778087C00FD7BCD
:10091000FF7A0D79E3120BCD753000753101120DA0
:1009200028E52F6401452E60030209BBC2B5D2B78A
:10093000D2B6D2B4AE32E533A82D088005C333CE8B
:1009400033CED8F9FFADB0E4F518EF5DF5194518D1
:100950007069E52D452C7006750842120DBCE52D19
:100960006401452C701778087C00FD7BFF7A0D79B7
:10097000E6120BCD753000753106120D28E52D6499
:1009800002452C701778087C00FD7BFF7A0D79EA10
:10099000120BCD753000753105120D28E52D64035D
:1009A000452C701778087C00FD7BFF7A0D79ED12DD
:1009B0000BCD753000753104120D28E52F6402450A
:1009C0002E6003020A55C2B6D2B7D2B5D2B4AE3247
:1009D000E533A82D088005C333CE33CED8F9FFAD5B
:1009E000B0E4F518EF5DF51945187069E52D452C53
:1009F0007006750843120DBCE52D6401452C701777
:100A000078087C00FD7BFF7A0D79F0120BCD7530F4
:100A100000753109120D28E52D6402452C701778F8
:100A2000087C00FD7BFF7A0D79E3120BCD75300059
:100A3000753108120D28E52D6403452C70177808D0
:100A40007C00FD7BFF7A0D79F8120BCD75300075B7
:100A50003107120D28E52F6403452E705CC2B7D212
:100A6000B6D2B5D2B4AE32E533A82D088005C33373
:100A7000CE33CED8F9FFADB0E4F518EF5DF51945EA
:100A8000187036E52D452C7006750844120DBCE52E
:100A90002D6401452C7006750823120DBCE52D64EC
:100AA00002452C7006750830120DBCE52D64034517
:100AB0002C700675082A120DBC052FE52F70020553
:100AC0002EC39404E52E64809480500302088905A7
:100AD0002DE52D7002052CC39404E52C64809480D0
:080AE00050030208370208224E
:100CA800020800E493A3F8E493A34003F68001F25A
:100CB80008DFF48029E493A3F85407240CC8C3334D
:100CC800C4540F4420C8834004F456800146F6DF1C
:100CD800E4800B0102040810204080900E0DE47E91
:100CE800019360BCA3FF543F30E509541FFEE49311
:100CF800A360010ECF54C025E060A840B8E493A3D8
:100D0800FAE493A3F8E493A3C8C582C8CAC583CA02
:100D1800F0A3C8C582C8CAC583CADFE9DEE780BEBA
:010E190000D8
:100AE800BB010689828A83E0225002E722BBFE020C
:090AF800E32289828A83E493223F
:100B0100E709F60870FA8046E709F20870FA803EB4
:100B110088828C83E709F0A370FA807EE309F608E6
:100B210070FA8076E309F20870FA806E88828C830D
:100B3100E309F0A370FA806289828A83E0A3F60850
:100B410070FA805689828A83E0A3F20870FA804A9B
:100B510080D280FA80C680D4806580F28031801096
:100B610080A680EA809A80A880DA80E280CA8031FB
:100B710089828A83ECFAE493A3C8C582C8CCC58371
:100B8100CCF0A3C8C582C8CCC583CC70E9800D89DF
:100B9100828A83E493A3F60870F9ECFAA9F0EDFBDD
:100BA1002289828A83ECFAE0A3C8C582C8CCC583B6
:100BB100CCF0A3C8C582C8CCC583CC70EA80DD89DE
:100BC100828A83E493A3F20870F980CE88F0ED2441
:100BD10002B4040050C4F582EB2402B4040050BAFC
:090BE1002323458223900B51737C
:00000001FF
