:03000000020100FA
:08010000316531D0510280FE8F
:10013000C00078083146D8FCD00022C000780431D5
:1001400046D8FCD00022C00078643151D8FCD000E1
:1001500022C0007828315CD8FCD00022C00078F49E
:10016000D8FED0002275901F3130C294E590232331
:10017000232375902F3130C2954590F55075903FEF
:100180003130C294C295E5902323232375904F31DB
:1001900030C2964590F55175905F3130C296C29449
:1001A000E5902323232375906F3130C296C2954585
:1001B00090F55275907F3130C296C295C294E59009
:1001C0002323232375908F3130C2974590F5532216
:1001D0007950C3E79440400EC3E79480400FC3E7D3
:1001E00094C040108015771009B954E62277200991
:1001F000B954DF22774009B954D822778009B9541D
:0F020000D12279508790313B09B954F880F4220C
:00000001FF
