:03000000020AEA07
:0C0AEA00787FE4F6D8FD758120020B3106
:100C09004D617374657220496E697469616C697AA2
:100C1900696E67005052494D45004E4F542050525D
:100C2900494D45004552524F52203430340000009E
:040C390000000000B7
:020CE400C1004D
:0C0CC00075C33F43B104D2AF43C34022D0
:0C0CCC0075C32F43B104D2AF43C34022D4
:0C0CD80075C33F43B104D2AF43C34022B8
:080B76008F178E168D158C14EB
:100B7E00C2007810120998E48FC53000FDA91DC27D
:100B8E0000AF17AE16AD15AC1478081209988FC5C4
:100B9E003000FDAB1DC200E517FF8FC53000FDAD67
:100BAE001DEB7B00FA7E00E97810C333CE33CED82E
:100BBE00F92BFFEE3AFE7C00EF2DFFEC3EFE339557
:030BCE00E0FDFC4B
:010BD1002201
:03004B00020C861E
:100C8600C0E0C0D0E5C454F02480700585C51DD2EF
:060C960000D0D0D0E032D6
:100BD200E4F5A0C282C280C2817F38FE120C9C1250
:100BE2000C627F067E00120C9C120C627F0C7E004F
:100BF200120C9C120C627F017E00120C9C120C6281
:070C02007F807E00020C9CC4
:040C62007F047E008D
:100C6600E4FDFCC3ED9FEC9E5015E4FBFA0BBB00C4
:0F0C7600010ABA01F8BB7EF50DBD00010C80E448
:010C8500224C
:1009AB008E188F198B1A8A1B891C7C277D101209B4
:1009BB0043EF243012090FAE18AF197C277D1012AC
:1009CB0009437E037FE8CFCDCFCECCCE120943EFC8
:1009DB002430AB1AAA1BA91C900001120921AE18D6
:1009EB00AF197C037DE81209437E007F64CFCDCF26
:1009FB00CECCCE120943EF2430AB1AAA1BA91C9004
:100A0B000002120921AE18AF197C007D6412094354
:100A1B007E007F0ACFCDCFCECCCE120943EF243050
:100A2B00AB1AAA1BA91C900003120921AE18AF190F
:100A3B007C007D0A120943ED2430AB1AAA1BA91CBA
:060A4B00900004020921E5
:100C9C00C280C281D2828FA07F0A7E00120C66C2F3
:020CAC008222A2
:100CAE00D280C281D2828FA07F0A7E00120C66C2D1
:020CBE00822290
:100C3D008B148A158916AB14AA15A9161208F6601D
:100C4D00130516E5167002051514F91208F6FF12B4
:050C5D000CAE80E22254
:100A5100750800750929750A00750B2BE4F50CF56D
:100A61000D780E7C00FD7BFF7A0C7937FE7F061234
:100A710008D0120CC0120BD27BFF7A0C7909120C30
:100A81003DC2B0AE08AF09E4FCFD120B76D2B07FD7
:100A9100F47E01120C66C2B0AE0AAF0BE4FCFD128B
:100AA1000B76D2B07FF47E01120C667F001E7D00B2
:100AB1007C00120B768E0C8F0D7F017E00120C9C38
:100AC100E50D6401450C70087BFF7A0C791D8014DB
:100AD100E50D6402450C7BFF70067A0C79238004D6
:090AE1007A0C792D120C3D80FE07
:100AF600020A51E493A3F8E493A34003F68001F2BB
:100B060008DFF48029E493A3F85407240CC8C33300
:100B1600C4540F4420C8834004F456800146F6DFCF
:100B2600E4800B0102040810204080900CE4E47E6F
:100B3600019360BCA3FF543F30E509541FFEE493C4
:100B4600A360010ECF54C025E060A840B8E493A38B
:100B5600FAE493A3F8E493A3C8C582C8CAC583CAB6
:100B6600F0A3C8C582C8CAC583CADFE9DEE780BE6E
:010CE600000D
:10080000E709F608DFFA8046E709F208DFFA803EDA
:1008100088828C83E709F0A3DFFA8032E309F608C7
:10082000DFFA8078E309F208DFFA807088828C832F
:10083000E309F0A3DFFA806489828A83E0A3F608E3
:10084000DFFA805889828A83E0A3F208DFFA804CBD
:1008500080D280FA80C680D4806980F28033801094
:1008600080A680EA809A80A880DA80E280CA8033FD
:1008700089828A83ECFAE493A3C8C582C8CCC58375
:10088000CCF0A3C8C582C8CCC583CCDFE9DEE78045
:100890000D89828A83E493A3F608DFF9ECFAA9F0C4
:1008A000EDFB2289828A83ECFAE0A3C8C582C8CC1A
:1008B000C583CCF0A3C8C582C8CCC583CCDFEADE33
:1008C000E880DB89828A83E493A3F208DFF980CC95
:1008D00088F0EF60010E4E60C388F0ED2402B4048E
:1008E0000050B9F582EB2402B4040050AF23234535
:0608F00082239008507302
:1008F600BB010689828A83E0225002E722BBFE0200
:09090600E32289828A83E4932232
:10090F00BB010689828A83F0225002F722BBFE01C7
:02091F00F322C1
:10092100F8BB010DE58229F582E5833AF583E8F00C
:10093100225006E92582C8F622BBFE05E92582C8B8
:02094100F222A0
:10094300BC000BBE0029EF8DF084FFADF022E4CC98
:10095300F875F008EF2FFFEE33FEEC33FCEE9DEC61
:10096300984005FCEE9DFE0FD5F0E9E4CEFD22EDA7
:10097300F8F5F0EE8420D21CFEADF075F008EF2FF1
:10098300FFED33FD4007985006D5F0F222C398FDE2
:050993000FD5F0EA227F
:10099800E8600FECC313FCED13FDEE13FEEF13FF3D
:0309A800D8F12261
:00000001FF
