:03000000020A7C75
:0C0A7C00787FE4F6D8FD75812C020AC3D7
:100D1D00534C41564520494E49540053756D206939
:090D2D007320000000000000002A
:020D9700C10099
:0C0D700075C33F43B104D2AF43C340221F
:0C0D7C0075C32F43B104D2AF43C3402223
:0C0D880075C33F43B104D2AF43C3402207
:080BF5007F007E007D007C0002
:080BFD008F198E188D178C165C
:100C0500C20078101209AAE48FC53000FDA91BC2E5
:100C150000AF19AE18AD17AC1678081209AA8FC522
:100C25003000FDAB1BC200E519FF8FC53000FDADDF
:100C35001BEB7B00FA7E00E97810C333CE33CED8A8
:100C4500F92BFFEE3AFE7C00EF2DFFEC3EFE3395CF
:030C5500E0FDFCC3
:010C58002279
:03004B00020D366D
:100D3600C0E0C0D0E5C454F02480700585C51BD240
:060D460000D0D0D0E03225
:100C9700E4F5A0C282C280C2817F38FE120D4C12D9
:100CA7000CF97F067E00120D4C120CF97F0C7E00AA
:100CB700120D4C120CF97F017E00120D4C120CF92B
:070CC7007F807E00020D4C4E
:040CF9007F047E00F6
:100CFD00E4FDFCC3ED9FEC9E5015E4FBFA0BBB002D
:0F0D0D00010ABA01F8BB7EF50DBD00010C80E4B0
:010D1C0022B4
:0609D0007B007A007910A3
:1009D6008E168F178B188A19891A7C277D10120993
:1009E60055EF243012090FAE16AF177C277D101273
:1009F60009557E037FE8CFCDCFCECCCE120955EF79
:100A06002430AB18AA19A91A900001120921AE16B2
:100A1600AF177C037DE81209557E007F64CFCDCFEA
:100A2600CECCCE120955EF2430AB18AA19A91A90CC
:100A36000002120921AE16AF177C007D641209551B
:100A46007E007F0ACFCDCFCECCCE120955EF243013
:100A5600AB18AA19A91A900003120921AE16AF17EE
:100A66007C007D0A120955ED2430AB18AA19A91A83
:060A7600900004020921BA
:100D4C00C280C281D2828FA07F0A7E00120CFDC2AB
:020D5C008222F1
:100D5E00D280C281D2828FA07F0A7E00120CFDC289
:020D6E008222DF
:060CCE007B007A007910A2
:100CD4008B168A178918AB16AA17A9181208F6607A
:100CE400130518E5187002051714F91208F6FF1217
:050CF4000D5E80E2220C
:030D9400D29422D4
:020B9000AB07B1
:100B9200E4F528F527752601F525EF75F010A47EFA
:100BA200005470FFEE3395E0FDFCEF4480FFED78DA
:100BB200081209BD8F2C8E2B8D2A8C29E528252C15
:100BC200FFE527352BFEE526352AFDE5253529FCEF
:100BD200C294120BFD8F248E238D228C21D294E598
:100BE20024F524E5235403F523E4F522F521AE236D
:020BF200AF242E
:010BF40022DE
:040C5900AB07AA0635
:100C5D00C3EB9402EA940050057E007F02229000BF
:100C6D0002AF82AE83AD82AC83120943D3EF9BEE0C
:100C7D009A5012AF03AE02120955ED4C7004FE7F6F
:090C8D000222A380DC7E007F013D
:010C9600223B
:100B080078107C007D007BFF7A0D79307E007F06AF
:100B18001208D0120D7C120C977BFF7A0D791D12EA
:100B28000CD47F017E00120D4C120BF58E088F0934
:100B38001209D0120CCE120BF58E0A8F0B7F2B12D6
:100B48000D5EAF0BAE0A1209D0120CCEE509250BCB
:100B5800F50DE508350AF50CAF0DFE120C598E0E91
:100B68008F0F7FC07E00120D4C7BFF7A0D79281203
:100B78000CD4AF0DAE0C1209D0120CCEAE0EAF0FC6
:080B8800E4FCFD120BFD80FEF0
:100A8800020B08E493A3F8E493A34003F68001F271
:100A980008DFF48029E493A3F85407240CC8C3336F
:100AA800C4540F4420C8834004F456800146F6DF3E
:100AB800E4800B0102040810204080900D97E47E2A
:100AC800019360BCA3FF543F30E509541FFEE49333
:100AD800A360010ECF54C025E060A840B8E493A3FA
:100AE800FAE493A3F8E493A3C8C582C8CAC583CA25
:100AF800F0A3C8C582C8CAC583CADFE9DEE780BEDD
:010D99000059
:10080000E709F608DFFA8046E709F208DFFA803EDA
:1008100088828C83E709F0A3DFFA8032E309F608C7
:10082000DFFA8078E309F208DFFA807088828C832F
:10083000E309F0A3DFFA806489828A83E0A3F608E3
:10084000DFFA805889828A83E0A3F208DFFA804CBD
:1008500080D280FA80C680D4806980F28033801094
:1008600080A680EA809A80A880DA80E280CA8033FD
:1008700089828A83ECFAE493A3C8C582C8CCC58375
:10088000CCF0A3C8C582C8CCC583CCDFE9DEE78045
:100890000D89828A83E493A3F608DFF9ECFAA9F0C4
:1008A000EDFB2289828A83ECFAE0A3C8C582C8CC1A
:1008B000C583CCF0A3C8C582C8CCC583CCDFEADE33
:1008C000E880DB89828A83E493A3F208DFF980CC95
:1008D00088F0EF60010E4E60C388F0ED2402B4048E
:1008E0000050B9F582EB2402B4040050AF23234535
:0608F00082239008507302
:1008F600BB010689828A83E0225002E722BBFE0200
:09090600E32289828A83E4932232
:10090F00BB010689828A83F0225002F722BBFE01C7
:02091F00F322C1
:10092100F8BB010DE58229F582E5833AF583E8F00C
:10093100225006E92582C8F622BBFE05E92582C8B8
:02094100F222A0
:10094300EF8DF0A4A8F0CF8CF0A428CE8DF0A42EC8
:02095300FE2282
:10095500BC000BBE0029EF8DF084FFADF022E4CC86
:10096500F875F008EF2FFFEE33FEEC33FCEE9DEC4F
:10097500984005FCEE9DFE0FD5F0E9E4CEFD22ED95
:10098500F8F5F0EE8420D21CFEADF075F008EF2FDF
:10099500FFED33FD4007985006D5F0F222C398FDD0
:0509A5000FD5F0EA226D
:1009AA00E8600FECC313FCED13FDEE13FEEF13FF2B
:0309BA00D8F1224F
:1009BD00E8600FEFC333FFEE33FEED33FDEC33FC98
:0309CD00D8F1223C
:00000001FF
