:03000000020A37BA
:0C0A3700787FE4F6D8FD75812B020A7E62
:080BBC000221000102230001E7
:100AC300E4F5A0C282C280C2817F38FE120BAA1253
:100AD3000B537F067E00120BAA120B537F0C7E0072
:100AE300120BAA120B537F017E00120BAA120B5397
:070AF3007F807E00020BAAC8
:040B53007F047E009D
:100B5700E4FDFCC3ED9FEC9E5015E4FBFA0BBB00D4
:0F0B6700010ABA01F8BB7EF50DBD00010C80E458
:010B7600225C
:040AFA008E258F2690
:100AFE00E4F527F528C3E5289526E5279525501F0B
:100B0E009000007F017E00120B57A3E582B4E8F33C
:0F0B1E00E583B403EE0528E52870DA052780D6B5
:010B2D0022A5
:100BAA00C280C281D2828FA07F0A7E00120B57C2F6
:020BBA00822295
:080B77007F80FE120BAAAF08FB
:100B7F00D280C281D2828FA07F0A7E00120B57C211
:020B8F008222C0
:100B2E008B298A2A892BAB29AA2AA92B120B916011
:100B3E0013052BE52B7002052A14F9120B91FF12E7
:050B4E000B7F80E22294
:10080000C2B7C2B6C2B5C2B4D2B0D2B1D2B2D2B3FC
:10081000120AC3C2B7C2B6C2B5C2B4D2B0D2B1D244
:10082000B2D2B3E4F51DF51E752100752201AE218B
:10083000E522A81E088005C333CE33CED8F9FFAD1C
:10084000B0E4F509EF5DF50A45096003020A1E7F71
:1008500014FE120B57AE21E522A81E088005C333F3
:10086000CE33CED8F9FFADB0E4F509EF5DF50A451A
:10087000096003020A1EF51FF520E520451F705C84
:10088000C2B4D2B7D2B6D2B5AE21E522A81E088036
:1008900005C333CE33CED8F9FFADB0E4F509EF5D33
:1008A000F50A45097036E51E451D700675084112AA
:1008B0000B77E51E6401451D7006750833120B7732
:1008C000E51E6402451D7006750832120B77E51EA1
:1008D0006403451D7006750831120B77E52064012D
:1008E000451F705CC2B5D2B7D2B6D2B4AE21E522F4
:1008F000A81E088005C333CE33CED8F9FFADB0E4CF
:10090000F509EF5DF50A45097036E51E451D7006CF
:10091000750842120B77E51E6401451D70067508C7
:1009200036120B77E51E6402451D700675083512F8
:100930000B77E51E6403451D7006750834120B77AE
:10094000E5206402451F705CC2B6D2B7D2B5D2B4FE
:10095000AE21E522A81E088005C333CE33CED8F9D8
:10096000FFADB0E4F509EF5DF50A45097036E51E07
:10097000451D7006750843120B77E51E6401451D81
:100980007006750839120B77E51E6402451D700666
:10099000750838120B77E51E6403451D700675084F
:1009A00037120B77E5206403451F705CC2B7D2B6DF
:1009B000D2B5D2B4AE21E522A81E088005C333CE3D
:1009C00033CED8F9FFADB0E4F509EF5DF50A45097E
:1009D0007036E51E451D7006750844120B77E51E3E
:1009E0006401451D7006750823120B77E51E64022D
:1009F000451D7006750830120B77E51E6403451D12
:100A0000700675082A120B770520E5207002051F75
:100A1000C39404E51F64809480500302087A051E85
:100A2000E51E7002051DC39404E51D64809480508A
:070A3000030208280208136D
:100A4300020800E493A3F8E493A34003F68001F2C1
:100A530008DFF48029E493A3F85407240CC8C333B4
:100A6300C4540F4420C8834004F456800146F6DF83
:100A7300E4800B0102040810204080900BBCE47E4C
:100A8300019360BCA3FF543F30E509541FFEE49378
:100A9300A360010ECF54C025E060A840B8E493A33F
:100AA300FAE493A3F8E493A3C8C582C8CAC583CA6A
:100AB300F0A3C8C582C8CAC583CADFE9DEE780BE22
:010BC4000030
:100B9100BB010689828A83E0225002E722BBFE0262
:090BA100E32289828A83E4932295
:00000001FF
