:100FB900536C61766520496E697469616C697A65FB
:100FC9000025642A25642B25642A25640053756D40
:070FD900206973202564006C
:10104600C109022200000628303030303000022F5D
:0A1056000000023100010224000036
:0C10890075C33F43B104D2AF43C3402203
:0C10950075C32F43B104D2AF43C3402207
:0C10A10075C33F43B104D2AF43C34022EB
:0E0EAF00A3EEF0A3EFF07F007E007D007C003C
:080EBD008F0B8E0A8D098C08D1
:100EC500C2097810120C10E48FC53009FDA92EC295
:100ED50009AF0BAE0AAD09AC087808120C108FC526
:100EE5003009FDAB2EC209E50BFF8FC53009FDADFD
:100EF5002EEB7B00FA7E00E97810C333CE33CED8D3
:100F0500F92BFFEE3AFE7C00EF2DFFEC3EFE33950C
:030F1500E0FDFC00
:010F180022B6
:03004B000210613F
:10106100C0E0C0D0E5C454F02480700585C52ED2FF
:0610710009D0D0D0E032EE
:100F5700E4F5A0C282C280C2817F38FE121034122B
:100F670010077F067E001210341210077F0C7E00D8
:100F77001210341210077F017E001210341210076E
:070F87007F807E00021034A0
:041007007F047E00E4
:10100B00E4FDFCC3ED9FEC9E5015E4FBFA0BBB001B
:0F101B00010ABA01F8BB7EF50DBD00010C80E49F
:01102A0022A3
:100D7D008E478F488B498A4A894B7C277D10120BF1
:100D8D00BBEF2430120B75AE47AF487C277D101298
:100D9D000BBB7E037FE8CFCDCFCECCCE120BBBEFFE
:100DAD002430AB49AA4AA94B900001120B87AE47DC
:100DBD00AF487C037DE8120BBB7E007F64CFCDCFA7
:100DCD00CECCCE120BBBEF2430AB49AA4AA94B9027
:100DDD000002120B87AE47AF487C007D64120BBB3F
:100DED007E007F0ACFCDCFCECCCE120BBBEF243001
:100DFD00AB49AA4AA94B900003120B87AE47AF48E7
:100E0D007C007D0A120BBBED2430AB49AA4AA94BDD
:060E1D00900004020B87A7
:09102B007F011210347F807E0069
:10103400C280C281D2828FA07F0A7E0012100BC2AE
:02104400822206
:10107700D280C281D2828FA07F0A7E0012100BC25B
:021087008222C3
:060F8E007B007A007933BC
:100F94008B088A09890AAB08AA09A90A120B5C60A2
:100FA40013050AE50A7002050914F9120B5CFF1215
:050FB400107780E2222D
:040F1900AB07AA0672
:100F1D00C3EB9402EA940050057E007F02229000FC
:100F2D0002AF82AE83AD82AC83120BA9D3EF9BEEE1
:100F3D009A5012AF03AE02120BBBED4C7004FE7F44
:090F4D000222A380DC7E007F017A
:010F56002278
:100C8600121095120F57E4900000F0A3F0A3F0A302
:100C9600F0900008F0A3F0FE12102B7BFF7A0F797C
:100CA600B9120F94120EB5900000EEF0A3EFF07E8D
:100CB6000012102B120EB5120EAF120EAFA3EEF0ED
:100CC600A3EFF07B007A00792A120F94750BFF755B
:100CD6000C0F750DCA900000E0F50EA3E0F50F901D
:100CE6000004E0F510A3E0F511900002E0F512A370
:100CF600E0F513900006E0F514A3E0F5157B007A05
:100D060000793312085C120F8E120100900006E083
:100D1600FCA3E0FD900002E0FEA3E0FF120BA9AAEF
:100D260006AB07A3E0FCA3E0FD900000E0FEA3E015
:100D3600FF120BA9EF2BF525EE3AF524AF25FE128F
:100D46000F198E268F277FC07E00121034750BFF79
:100D5600750C0F750DD685240E85250F7B007A0040
:100D6600793312085C120F8EAE26AF27EE3395E06C
:070D7600FDFC120EBD80FE22
:10010000900000E0900004E0F5F0A4F8900002E018
:0D011000900006E0F5F0A428900008F02211
:03000000020E23CA
:0C0E2300787FE4F6D8FD75814B020E6A62
:100B5C00BB010689828A83E0225002E722BBFE0297
:090B6C00E32289828A83E49322CA
:100B7500BB010689828A83F0225002F722BBFE015F
:020B8500F32259
:100B8700F8BB010DE58229F582E5833AF583E8F0A4
:100B9700225006E92582C8F622BBFE05E92582C850
:020BA700F22238
:100BA900EF8DF0A4A8F0CF8CF0A428CE8DF0A42E60
:020BB900FE221A
:100BBB00BC000BBE0029EF8DF084FFADF022E4CC1E
:100BCB00F875F008EF2FFFEE33FEEC33FCEE9DECE7
:100BDB00984005FCEE9DFE0FD5F0E9E4CEFD22ED2D
:100BEB00F8F5F0EE8420D21CFEADF075F008EF2F77
:100BFB00FFED33FD4007985006D5F0F222C398FD68
:050C0B000FD5F0EA2204
:100C1000E8600FECC313FCED13FDEE13FEEF13FFC2
:030C2000D8F122E6
:10080000E517240BF8E60517227808300702780B65
:10081000E475F001120C50020B5C2000EB7F2ED22D
:10082000008018EF540F2490D43440D4FF30040BD0
:10083000EF24BFB41A0050032461FFE518600215CD
:1008400018051BE51B7002051A30070D7808E475C2
:10085000F001120C50EF020B75020FE07403D20787
:100860008003E4C207F5178B088A09890AE4F518A2
:10087000F51AF51BE51860077F2012083B80F57517
:1008800019FFC201C200C202C203C205C206C208E9
:10089000120809FF700D3007057F0012084CAF1BCE
:1008A000AE1A22B4255FC2D5C204120809FF24D0B3
:1008B000B40A00501A75F00A781830D50508B6FF4A
:1008C0000106C6A426F620D5047002D20380D924DE
:1008D000CFB41A00EF5004C2E5D204020A4CD20190
:1008E00080C6D20080C0D20280BCD2D580BAD205E8
:1008F00080B47F2012083B2002077401B518004025
:10090000F1120800FF12083B020874D208D20680D8
:1009100095120800FB120800FA120800F94A4B7001
:1009200006791D7A0B7BFF20022EE518602A7E00D7
:100930008E82758300120C2360060EEE651970F02E
:10094000C2D5EBC0E0EAC0E0E9C0E0EE120A93D005
:10095000E0F9D0E0FAD0E0FB120B5CFF60AAEBC03C
:10096000E0EAC0E0E9C0E012083BD0E02401F9D0A1
:10097000E03400FAD0E0FBE5190460DCD519D98039
:10098000877BFF7A0A798FD202809C791080027966
:1009900008C206C2088008D2D5790A8004790AC242
:1009A000D5E519047002F519E4FAFDFEFF120800FE
:1009B000FC7B08200113120800FD7B1030000A1296
:1009C0000800FE120800FF7B20EC3382D592D55040
:1009D00013C3E43000069FFFE49EFEE42001039D64
:1009E000FDE49CFCE4CBF8C201EC700CCFCECDCC86
:1009F000E824F8F870F38017C3EF33FFEE33FEED11
:100A000033FDEC33FCEB33FB994002FB0FD8E9EBF1
:100A1000300105F8D0E0C448B201C0E00AEC4D4E08
:100A20004F78207B0070C2EAB5190040BCC0E012CC
:100A30000A95D0F0D0E0200104C4C0E0C4B201C0E7
:100A4000F0120824D0F0D5F0EB020874120C600903
:100A50001153098B5808E24C08DE42098F4F099761
:0F0A60004409974908F743099D550981460981C3
:100A6F00450981470B3D5008E62D08EA2E090D2B4D
:100A7F0008EE23090B200B262A08A64800000905BB
:100A8F003F3F3F00790AA2D5200314300509B91062
:100A9F00020404B9080104A2D52006025001042063
:100AAF0002689202B518005034C0E07F203003195D
:100ABF007F30A20272067205500F120AECC202C2F8
:100ACF0006C205C2087F30800F300503E9C0E0126F
:100ADF00083B300503D0E0F9D0E0B518CC3005174E
:100AEF007F30B9100C12083B7F583004077F788095
:100AFF0003B9080312083B3002057F2D02083B7F24
:100B0F00202008F87F2B2006F322920280CF286E38
:100B1F00756C6C2900D2011208003001F8C20178FF
:100B2F001830D50108F60208A62D5043495812086F
:100B3F00002403B405004001E4900B389312082CF5
:0D0B4F00743A12082CD20375180402098BA9
:100E2F00020C86E493A3F8E493A34003F68001F247
:100E3F0008DFF48029E493A3F85407240CC8C333C4
:100E4F00C4540F4420C8834004F456800146F6DF93
:100E5F00E4800B0102040810204080901046E47ECD
:100E6F00019360BCA3FF543F30E509541FFEE49388
:100E7F00A360010ECF54C025E060A840B8E493A34F
:100E8F00FAE493A3F8E493A3C8C582C8CAC583CA7A
:100E9F00F0A3C8C582C8CAC583CADFE9DEE780BE32
:01106000008F
:100C2300BB010CE58229F582E5833AF583E0225086
:100C330006E92582F8E622BBFE06E92582F8E222D0
:0D0C4300E58229F582E5833AF583E49322EA
:100C5000FAE6FB0808E6F925F0F618E6CA3AF622A5
:100C6000D083D082F8E4937012740193700DA3A323
:100C700093F8740193F5828883E473740293686037
:060C8000EFA3A3A380DF37
:100FE000EFB40A07740D120FEB740A309811A89928
:100FF000B8130CC2983098FDA899C298B811F63071
:0710000099FDC299F5992248
:00000001FF
