:030000000209737F
:0C097300787FE4F6D8FD7581200209BAF7
:100BBB00536C61766520496E697469616C697A69F9
:0B0BCB006E670053756D2069732000F9
:0A0C2200C100060E30303030300003
:0C0BFE0075C33F43B104D2AF43C3402293
:0C0C0A0075C32F43B104D2AF43C3402296
:0C0C160075C33F43B104D2AF43C340227A
:080A76007F007E007D007C0082
:080A7E008F1A8E198D188C17D8
:100A8600C20078101208B4E48FC53000FDA916C262
:100A960000AF1AAE19AD18AC1778081208B48FC596
:100AA6003000FDAB16C200E51AFF8FC53000FDAD64
:100AB60016EB7B00FA7E00E97810C333CE33CED82E
:100AC600F92BFFEE3AFE7C00EF2DFFEC3EFE339550
:030AD600E0FDFC44
:010AD90022FA
:03004B00020BD6CF
:100BD600C0E0C0D0E5C454F02480700585C516D2A7
:060BE60000D0D0D0E03287
:100B1800E4F5A0C282C280C2817F38FE120BA912FE
:100B28000B7A7F067E00120BA9120B7A7F0C7E00CF
:100B3800120BA9120B7A7F017E00120BA9120B7AF5
:070B48007F807E00020BA973
:040B7A007F047E0076
:100B7E00E4FDFCC3ED9FEC9E5015E4FBFA0BBB00AD
:0F0B8E00010ABA01F8BB7EF50DBD00010C80E431
:010B9D002235
:0608C7007B007A00790EAF
:1008CD008E178F188B198A1A891B7C277D10120899
:1008DD005FEF2430120819AE17AF187C277D101268
:1008ED00085F7E037FE8CFCDCFCECCCE12085FEF71
:1008FD002430AB19AA1AA91B90000112082BAE17B0
:10090D00AF187C037DE812085F7E007F64CFCDCFEA
:10091D00CECCCE12085FEF2430AB19AA1AA91B90CA
:10092D00000212082BAE17AF187C007D6412085F11
:10093D007E007F0ACFCDCFCECCCE12085FEF243014
:10094D00AB19AA1AA91B90000312082BAE17AF18EA
:10095D007C007D0A12085FED2430AB19AA1AA91B81
:06096D0090000402082BBB
:0B0B9E007F017E00120BA97F807E000B
:100BA900C280C281D2828FA07F0A7E00120B7EC2D0
:020BB900822296
:100BEC00D280C281D2828FA07F0A7E00120B7EC27D
:020BFC00822253
:060B4F007B007A00790E24
:100B55008B178A188919AB17AA18A91912080060EA
:100B6500130519E5197002051814F9120800FF128A
:050B75000BEC80E22200
:040ADA00AB07AA06B6
:100ADE00C3EB9402EA940050057E007F0222900040
:100AEE0002AF82AE83AD82AC8312084DD3EF9BEE84
:100AFE009A5012AF03AE0212085FED4C7004FE7FE7
:090B0E000222A380DC7E007F01BD
:010B170022BB
:1009FF00120C0A120B18120B9E7BFF7A0B79BB128B
:100A0F000B55120A768E088F091208C7120B9E1209
:100A1F000B4F120A768E0A8F0B7F2B120BECAF0B3C
:100A2F00AE0A1208C7120B4FE509250BF515E5089D
:100A3F00350AF514AF15FE120ADA8E0C8F0D7FC032
:100A4F007E00120BA97BFF7A0B79CE120B55AF15D7
:100A5F00AE141208C7120B4FAE0CAF0DEE3395E06C
:070A6F00FDFC120A7E80FE6F
:10097F000209FFE493A3F8E493A34003F68001F286
:10098F0008DFF48029E493A3F85407240CC8C33379
:10099F00C4540F4420C8834004F456800146F6DF48
:1009AF00E4800B0102040810204080900C22E47EAA
:1009BF00019360BCA3FF543F30E509541FFEE4933D
:1009CF00A360010ECF54C025E060A840B8E493A304
:1009DF00FAE493A3F8E493A3C8C582C8CAC583CA2F
:1009EF00F0A3C8C582C8CAC583CADFE9DEE780BEE7
:010C2C0000C7
:10080000BB010689828A83E0225002E722BBFE02F6
:09081000E32289828A83E4932229
:10081900BB010689828A83F0225002F722BBFE01BE
:02082900F322B8
:10082B00F8BB010DE58229F582E5833AF583E8F003
:10083B00225006E92582C8F622BBFE05E92582C8AF
:02084B00F22297
:10084D00EF8DF0A4A8F0CF8CF0A428CE8DF0A42EBF
:02085D00FE2279
:10085F00BC000BBE0029EF8DF084FFADF022E4CC7D
:10086F00F875F008EF2FFFEE33FEEC33FCEE9DEC46
:10087F00984005FCEE9DFE0FD5F0E9E4CEFD22ED8C
:10088F00F8F5F0EE8420D21CFEADF075F008EF2FD6
:10089F00FFED33FD4007985006D5F0F222C398FDC7
:0508AF000FD5F0EA2264
:1008B400E8600FECC313FCED13FDEE13FEEF13FF22
:0308C400D8F12246
:00000001FF
