:100A35000D0A456E74657220496E7075742D313AD4
:100A450020000D0A456E74657220496E7075742D0F
:100A5500323A20000D0A456E7465722061313A20E4
:100A6500000D0A456E7465722061323A20000D0A48
:100A75005052494D450D0A000D0A4E4F5420505213
:060A8500494D450D0A0079
:100AC900C100C102C101011600021C000002080098
:100AD90000021000000212000002170000021900B3
:090AE90000020A000002140000E2
:0C0B740075C33F43B104D2AF43C340221D
:0C0B800075C32F43B104D2AF43C3402221
:0C0B8C0075C33F43B104D2AF43C3402205
:0609D300EE3395E0FDFC8F
:0809D9008F248E238D228C2156
:1009E100C2007810120AB6E48FC53000FDA91BC2FF
:1009F10000AF24AE23AD22AC217808120AB68FC510
:100A01003000FDAB1BC200E524FF8FC53000FDADFA
:100A11001BEB7B00FA7E00E97810C333CE33CED8CE
:100A2100F92BFFEE3AFE7C00EF2DFFEC3EFE3395F5
:030A3100E0FDFCE9
:010A3400229F
:03004B00020B3E67
:100B3E00C0E0C0D0E5C454F02480700585C51BD23A
:060B4E0000D0D0D0E0321F
:100B5400758920758DCC759850D28ED2ACD2AF22C7
:080BA2008F993002FDC202220E
:100B19008B218A228923AB21AA22A923120A8B605D
:100B2900130523E5237002052214F9120A8BFF121B
:050B39000BA280E22286
:090B9800E4FF3001FDC201AF9938
:010BA1002231
:03002300020B6469
:100B6400309905C299D20232309804C298D2013227
:060AF300D2947FF47E01A5
:100AF900E4FDFCC3ED9FEC9E5015E4FBFA0BBB0033
:0F0B0900010ABA01F8BB7EF50DBD00010C80E4B6
:010B180022BA
:10080000120B74120B547BFF7A0A7935120B1912F2
:100810000B988F16E516642E6024AE1CAF1D7C006D
:100820007D0A120AA48E1C8F1DE51624D0FFE43425
:10083000FFFEEF251DF51DEE351CF51C80D17BFF5D
:100840007A0A7947120B19120B988F16E516642E47
:100850006024AE08AF097C007D0A120AA48E088FBE
:1008600009E51624D0FFE434FFFEEF2509F509EE73
:100870003508F50880D17BFF7A0A7959120B1912D5
:100880000B988F16E516642E6024AE0CAF0D7C001D
:100890007D0A120AA48E0C8F0DE51624D0FFE434D5
:1008A000FFFEEF250DF50DEE350CF50C80D17BFF2D
:1008B0007A0A7966120B19120B988F16E516642EB8
:1008C0006024AE0EAF0F7C007D0A120AA48E0E8F3C
:1008D0000FE51624D0FFE434FFFEEF250FF50FEEF1
:1008E000350EF50E80D1C294AE1CAF1D1209D31285
:1008F0000AF3C294AE08AF091209D3120AF3C294E4
:10090000AE0CAF0D1209D3120AF3C294AE0EAF0FA4
:100910001209D3120AF37F001E7D007C001209D950
:100920008E148F15E5156401451470087BFF7A0A53
:100930007973800EE5156402451470097BFF7A0A0D
:07094000797D120B1980FE06
:03000000020947AB
:0C094700787FE4F6D8FD75812402098E4B
:10095300020800E493A3F8E493A34003F68001F2B2
:1009630008DFF48029E493A3F85407240CC8C333A5
:10097300C4540F4420C8834004F456800146F6DF74
:10098300E4800B0102040810204080900AC9E47E31
:10099300019360BCA3FF543F30E509541FFEE49369
:1009A300A360010ECF54C025E060A840B8E493A330
:1009B300FAE493A3F8E493A3C8C582C8CAC583CA5B
:1009C300F0A3C8C582C8CAC583CADFE9DEE780BE13
:010AF2000003
:100A8B00BB010689828A83E0225002E722BBFE0269
:090A9B00E32289828A83E493229C
:100AA400EF8DF0A4A8F0CF8CF0A428CE8DF0A42E66
:020AB400FE2220
:100AB600E8600FECC313FCED13FDEE13FEEF13FF1E
:030AC600D8F12242
:00000001FF
