:03000000020800F3
:0C080000787FE4F6D8FD75811D020847E2
:0E0A3A004B657920507265737365643A200035
:100A030010083132334134353642373839432A30CE
:020A130023447A
:10090300E4F5A0C282C280C2817F38FE120A1612A9
:1009130009907F067E00120A161209907F0C7E0052
:10092300120A161209907F017E00120A161209900C
:070933007F807E00020A161E
:040990007F047E0062
:10099400E4FDFCC3ED9FEC9E5015E4FBFA0BBB0099
:0F09A400010ABA01F8BB7EF50DBD00010C80E41D
:0109B3002221
:100A1600C280C281D2828FA07F0A7E00120994C250
:020A260082222A
:100A2800D280C281D2828FA07F0A7E00120994C22E
:020A3800822218
:10096B008B1B8A1C891DAB1BAA1CA91D1209D460E9
:10097B0013051DE51D7002051C14F91209D4FF1295
:05098B000A2880E222B1
:10093A001209037F807E00120A167BFF7A0A793A2F
:10094A0012096B120A4812088C1209ED30B3FD30F5
:10095A00B2FA30B1F730B0F47F147E001209B480D5
:01096A00E5A7
:090A4800D2B4D2B5D2B6D2B72265
:10088C0030B30C30B20930B10630B0037F00227F98
:10089C00147E001209B4E4FFD2B4D2B5D2B6D2B7EA
:1008AC00EF14600E14600F1460102403700EC2B4A9
:1008BC00800AC2B58006C2B68002C2B720B309EF67
:1008CC0025E025E02408802220B209EF25E025E070
:1008DC002409801620B109EF25E025E0240A800ABE
:1008EC0020B00BEF25E025E0240BF8E6FF220FEFFC
:0608FC00640470A47F00FB
:0109020022D2
:1009B400E4FDFCC3ED9FEC9E5015E4FBFA0BBB0079
:0F09C400010ABA01F8BB48F50DBD00010C80E433
:0109D3002201
:1009ED008B188A19891A7F8C7E00120A16AB18AAE9
:0609FD0019A91A02096BA2
:10080C0002093AE493A3F8E493A34003F68001F2BF
:10081C0008DFF48029E493A3F85407240CC8C333ED
:10082C00C4540F4420C8834004F456800146F6DFBC
:10083C00E4800B0102040810204080900A03E47E3F
:10084C00019360BCA3FF543F30E509541FFEE493B1
:10085C00A360010ECF54C025E060A840B8E493A378
:10086C00FAE493A3F8E493A3C8C582C8CAC583CAA3
:10087C00F0A3C8C582C8CAC583CADFE9DEE780BE5B
:010A150000E0
:1009D400BB010689828A83E0225002E722BBFE0221
:0909E400E32289828A83E4932254
:00000001FF
