:030000000208BB38
:0C08BB00787FE4F6D8FD7581090209027F
:040977000208000072
:03000B00020800E8
:10080000C0E0C0D0B287C3E5099414E508648094C1
:100810008050030208B0C3E5099432E5086480946F
:10082000805009758CF1758A880208B6C3E5099471
:100830005AE508648094805008758CF2758AFB80B4
:1008400075C3E509946EE508648094805008758C42
:10085000F3758ACB8060C3E5099496E508648094BB
:10086000805008758CF5758A26804BC3E50994B4D1
:10087000E508648094805008758CF6758A3C803653
:10088000C3E50994DCE508648094805008758CF712
:10089000758A528021C3E50994F0E508648094804C
:1008A0005008758CF7758ADD800C75080075090095
:0B08B000758CEF758AB9D0D0D0E03213
:03001B0002096275
:10096200C0E0B2B70509E50970020508758D3C754E
:050972008BB0D0E03263
:10094700758911758D3C758BB0758CEF758AB9D229
:0B095700A9D2ABD2AFD28CD28E80FEB2
:1008C700020947E493A3F8E493A34003F68001F2F7
:1008D70008DFF48029E493A3F85407240CC8C33332
:1008E700C4540F4420C8834004F456800146F6DF01
:1008F700E4800B0102040810204080900977E47E11
:10090700019360BCA3FF543F30E509541FFEE493F5
:10091700A360010ECF54C025E060A840B8E493A3BC
:10092700FAE493A3F8E493A3C8C582C8CAC583CAE7
:10093700F0A3C8C582C8CAC583CADFE9DEE780BE9F
:01097B00007B
:00000001FF
