:03000000020E19D4
:0C0E1900787FE4F6D8FD75814F020B5C79
:100CC80025640020202053455420494E5055542077
:100CD8003120200020202053455420494E5055549F
:100CE800203220200020202053455420494E5055C2
:100CF800542033202000202046494E414C205245A4
:070D080053554C542020005C
:100D4700E4F5A0C282C280C2817F38FE120DF5127F
:100D57000D857F067E00120DF5120D857F0C7E0036
:100D6700120DF5120D857F017E00120DF5120D850E
:070D77007F807E00020DF5F4
:0B0D7E007F807E00120DF57F047E00D8
:100D8900E4FDFCC3ED9FEC9E5015E4FBFA0BBB00A0
:0F0D9900010ABA01F8BB7EF50DBD00010C80E424
:010DA8002228
:040D0F007F057E00DE
:040D13008E3C8F3D46
:100D1700E4F53EF53FC3E53F953DE53E953C501F65
:100D27009000007F017E00120D89A3E582B4E8F3ED
:0F0D3700E583B403EE053FE53F70DA053E80D655
:010D4600228A
:100DF500C280C281D2828FA07F0A7E00120D89C275
:020E0500822247
:100E0700D280C281D2828FA07F0A7E00120D89C252
:020E1700822235
:100DD0008B3C8A3D893EAB3CAA3DA93E120C286063
:100DE00013053EE53E7002053D14F9120C28FF1272
:050DF0000E0780E22265
:100B5C0075260075270A75280075290A752A0075EF
:100B6C002B14120D47120D7E7BFF7A0C79CB120DD4
:100B7C00D075901F120D0FE590540F752200F523C0
:100B8C00120D7E7BFF7A0C79DC120DD075902F1232
:100B9C000D0FE590540F752400F525120D7E7BFF8B
:100BAC007A0C79ED120DD075903F120D0FE5905423
:100BBC000FFBAC28AD29AE24AF25120C418E838FD0
:100BCC0082AC22AD23AE26AF27120C41EF2582F565
:100BDC0082EE3583F583AC2AAD2B7E00AF03120C6D
:100BEC0041EF2582FFEE3583753FFF75400C754153
:100BFC00C8F5428F437B007A00792C12085C120DE9
:100C0C007E7BFF7A0C79FE120DD07FC07E00120D18
:0C0C1C00F57B007A00792C120DD080FED0
:100C2800BB010689828A83E0225002E722BBFE02CA
:090C3800E32289828A83E49322FD
:100C4100EF8DF0A4A8F0CF8CF0A428CE8DF0A42EC7
:020C5100FE2281
:10080000E54B243FF8E6054B22783C300702783F61
:10081000E475F001120C92020C282000EB7F2ED21E
:10082000008018EF540F2490D43440D4FF30040BD0
:10083000EF24BFB41A0050032461FFE54C60021599
:100840004C054FE54F7002054E30070D783CE475BE
:10085000F001120C92EF020C80020DA97403D20772
:100860008003E4C207F54B8B3C8A3D893EE4F54C9E
:10087000F54EF54FE54C60077F2012083B80F5757B
:100880004DFFC201C200C202C203C205C206C208B5
:10089000120809FF700D3007057F0012084CAF4F9A
:1008A000AE4E22B4255FC2D5C204120809FF24D07F
:1008B000B40A00501A75F00A784C30D50508B6FF16
:1008C0000106C6A426F620D5047002D20380D924DE
:1008D000CFB41A00EF5004C2E5D204020A4CD20190
:1008E00080C6D20080C0D20280BCD2D580BAD205E8
:1008F00080B47F2012083B2002077401B54C0040F1
:10090000F1120800FF12083B020874D208D20680D8
:1009100095120800FB120800FA120800F94A4B7001
:1009200006791D7A0B7BFF20022EE54C602A7E00A3
:100930008E82758300120C5360060EEE654D70F0CA
:10094000C2D5EBC0E0EAC0E0E9C0E0EE120A93D005
:10095000E0F9D0E0FAD0E0FB120C28FF60AAEBC06F
:10096000E0EAC0E0E9C0E012083BD0E02401F9D0A1
:10097000E03400FAD0E0FBE54D0460DCD54DD980D1
:10098000877BFF7A0A798FD202809C791080027966
:1009900008C206C2088008D2D5790A8004790AC242
:1009A000D5E54D047002F54DE4FAFDFEFF12080096
:1009B000FC7B08200113120800FD7B1030000A1296
:1009C0000800FE120800FF7B20EC3382D592D55040
:1009D00013C3E43000069FFFE49EFEE42001039D64
:1009E000FDE49CFCE4CBF8C201EC700CCFCECDCC86
:1009F000E824F8F870F38017C3EF33FFEE33FEED11
:100A000033FDEC33FCEB33FB994002FB0FD8E9EBF1
:100A1000300105F8D0E0C448B201C0E00AEC4D4E08
:100A20004F78207B0070C2EAB54D0040BCC0E01298
:100A30000A95D0F0D0E0200104C4C0E0C4B201C0E7
:100A4000F0120824D0F0D5F0EB020874120CA209C1
:100A50001153098B5808E24C08DE42098F4F099761
:0F0A60004409974908F743099D550981460981C3
:100A6F00450981470B3D5008E62D08EA2E090D2B4D
:100A7F0008EE23090B200B262A08A64800000905BB
:100A8F003F3F3F00790AA2D5200314300509B91062
:100A9F00020404B9080104A2D52006025001042063
:100AAF0002689202B54C005034C0E07F2030031929
:100ABF007F30A20272067205500F120AECC202C2F8
:100ACF0006C205C2087F30800F300503E9C0E0126F
:100ADF00083B300503D0E0F9D0E0B54CCC3005171A
:100AEF007F30B9100C12083B7F583004077F788095
:100AFF0003B9080312083B3002057F2D02083B7F24
:100B0F00202008F87F2B2006F322920280CF286E38
:100B1F00756C6C2900D2011208003001F8C20178FF
:100B2F004C30D50108F60208A62D5043495812083B
:100B3F00002403B405004001E4900B389312082CF5
:0D0B4F00743A12082CD203754C0402098B75
:100C5300BB010CE58229F582E5833AF583E0225056
:100C630006E92582F8E622BBFE06E92582F8E222A0
:0D0C7300E58229F582E5833AF583E49322BA
:100C8000BB010689828A83F0225002F722BBFE0153
:020C9000F3224D
:100C9200FAE6FB0808E6F925F0F618E6CA3AF62263
:100CA200D083D082F8E4937012740193700DA3A3E1
:100CB20093F8740193F5828883E4737402936860F5
:060CC200EFA3A3A380DFF5
:100DA900EFB40A07740D120DB4740A309811A8999A
:100DB900B8130CC2983098FDA899C298B811F630AA
:070DC90099FDC299F5992282
:00000001FF
