:030000000208E90A
:0C08E900787FE4F6D8FD7581200209300C
:1009750050726573732061206B65792E2E2E00539E
:1009850061284C6F7729005265004761004D610071
:10099500506100446861004E6900536128486967E9
:1009A50068290053696C656E636500496E76616CF4
:0709B5006964204B65790025
:070AFF00C101C100010B0061
:1009FB00E4F5A0C282C280C2817F38FE120AA01227
:100A0B000A7C7F067E00120AA0120A7C7F0C7E00F5
:100A1B00120AA0120A7C7F017E00120AA0120A7C25
:070A2B007F807E00020AA09B
:040A7C007F047E0075
:100A8000E4FDFCC3ED9FEC9E5015E4FBFA0BBB00AC
:0F0A9000010ABA01F8BB7EF50DBD00010C80E430
:010A9F002234
:100AA000C280C281D2828FA07F0A7E00120A80C2D9
:020AB0008222A0
:100AB200D280C281D2828FA07F0A7E00120A80C2B7
:020AC20082228E
:100A32008B0E8A0F8910AB0EAA0FA9101209BC6087
:100A4200130510E5107002050F14F91209BCFF120C
:050A52000AB280E2225F
:100AC400758920758DCC759850D28ED2ACD2AF2258
:080AF7008F993001FDC20122BC
:100A57008B088A09890AAB08AA09A90A1209BC6086
:100A670013050AE50A7002050914F91209BCFF12F9
:050A77000AF780E222F5
:090AE400E4FF3000FDC200AF99EF
:010AED0022E6
:03002300020AD4FA
:100AD400309905C299D20132309804C298D20032BA
:03000B00020AEEF8
:090AEE00B287850C8C850D8A325B
:100800001209FB120AC47F807E00120AA07BFF7AC5
:10081000097975120A32438901D2A9D2AF3098FD05
:10082000C298A9997F017E00120AA07F807E0012E3
:100830000AA0AF01E91209D508B961089D640873DF
:100840006708816D08AB6E088F7008CD71086572FE
:10085000085773000008DD750CEF750DB97BFF7A42
:100860000979848060750CF1750D887BFF7A0979B0
:100870008C8052750CF2750DFB7BFF7A09798F80A5
:1008800044750CF3750DCB7BFF7A09799280367530
:100890000CF5750D267BFF7A0979958028750CF685
:1008A000750D3C7BFF7A097998801A750CF7750DE8
:1008B000527BFF7A09799C800C750CF7750DDD7BF6
:1008C000FF7A09799F120A32D28C02081DC28CC2AB
:1008D000877BFF7A0979A8120A3202081D7BFF7A0A
:0908E0000979B0120A3202081D68
:1008F500020800E493A3F8E493A34003F68001F211
:1009050008DFF48029E493A3F85407240CC8C33303
:10091500C4540F4420C8834004F456800146F6DFD2
:10092500E4800B0102040810204080900AFFE47E59
:10093500019360BCA3FF543F30E509541FFEE493C7
:10094500A360010ECF54C025E060A840B8E493A38E
:10095500FAE493A3F8E493A3C8C582C8CAC583CAB9
:10096500F0A3C8C582C8CAC583CADFE9DEE780BE71
:010B060000EE
:1009BC00BB010689828A83E0225002E722BBFE0239
:0909CC00E32289828A83E493226C
:1009D500D083D082F8E4937012740193700DA3A3B1
:1009E50093F8740193F5828883E4737402936860C5
:0609F500EFA3A3A380DFC5
:00000001FF
