:10010000900000E0FAA3E0FB900002E02AFC50011E
:0E0110000BA3E02BFD900004ECF0A3EDF02219
:100BD200536C61766520496E697469616C697A65E6
:090BE2000053756D2069732000B9
:100BEB00C10002080000060C303030303000021318
:060BFB00000002150001DC
:0C0C2A0075C33F43B104D2AF43C3402266
:0C0C360075C32F43B104D2AF43C340226A
:0C0C420075C33F43B104D2AF43C340224E
:080A8F007F007E007D007C0069
:080A97008F1A8E198D188C17BF
:100A9F00C20078101208B4E48FC53000FDA912C24D
:100AAF0000AF1AAE19AD18AC1778081208B48FC57D
:100ABF003000FDAB12C200E51AFF8FC53000FDAD4F
:100ACF0012EB7B00FA7E00E97810C333CE33CED819
:100ADF00F92BFFEE3AFE7C00EF2DFFEC3EFE339537
:030AEF00E0FDFC2B
:010AF20022E1
:03004B00020C02A2
:100C0200C0E0C0D0E5C454F02480700585C512D27E
:060C120000D0D0D0E0325A
:100B3100E4F5A0C282C280C2817F38FE120BC012CE
:100B41000B937F067E00120BC0120B937F0C7E006D
:100B5100120BC0120B937F017E00120BC0120B937C
:070B61007F807E00020BC043
:040B93007F047E005D
:100B9700E4FDFCC3ED9FEC9E5015E4FBFA0BBB0094
:0F0BA700010ABA01F8BB7EF50DBD00010C80E418
:010BB600221C
:0B08C700E0FEA3E0FF7B007A00790C4C
:1008D2008E178F188B198A1A891B7C277D10120894
:1008E2005FEF2430120819AE17AF187C277D101263
:1008F200085F7E037FE8CFCDCFCECCCE12085FEF6C
:100902002430AB19AA1AA91B90000112082BAE17AA
:10091200AF187C037DE812085F7E007F64CFCDCFE5
:10092200CECCCE12085FEF2430AB19AA1AA91B90C5
:10093200000212082BAE17AF187C007D6412085F0C
:100942007E007F0ACFCDCFCECCCE12085FEF24300F
:10095200AB19AA1AA91B90000312082BAE17AF18E5
:100962007C007D0A12085FED2430AB19AA1AA91B7C
:0609720090000402082BB6
:090BB7007F01120BC07F807E005B
:100BC000C280C281D2828FA07F0A7E00120B97C2A0
:020BD00082227F
:100C1800D280C281D2828FA07F0A7E00120B97C237
:020C2800822226
:060B68007B007A00790C0D
:100B6E008B178A188919AB17AA18A91912080060D1
:100B7E00130519E5197002051814F9120800FF1271
:050B8E000C1880E222BA
:040AF300AB07AA069D
:100AF700C3EB9402EA940050057E007F0222900027
:100B070002AF82AE83AD82AC8312084DD3EF9BEE6A
:100B17009A5012AF03AE0212085FED4C7004FE7FCD
:090B27000222A380DC7E007F01A4
:010B300022A2
:100A0400120C36120B31E4900000F0A3F0A3F0A313
:100A1400F0A3F0A3F0FE120BB77BFF7A0B79D2128E
:100A24000B6E120A8F900000EEF0A3EFF01208CCC8
:100A34007E00120BB7120B68120A8F900002EEF0C0
:100A4400A3EFF07F2B120C189000021208C7120BB0
:100A540068120100900004E0FEA3E0FF120AF38E86
:100A64000A8F0B7FC07E00120BC07BFF7A0B79E3E9
:100A7400120B6E9000041208C7120B68AE0AAF0B7B
:0B0A8400EE3395E0FDFC120A9780FEA7
:030000000209787A
:0C097800787FE4F6D8FD7581200209BFED
:10080000BB010689828A83E0225002E722BBFE02F6
:09081000E32289828A83E4932229
:10081900BB010689828A83F0225002F722BBFE01BE
:02082900F322B8
:10082B00F8BB010DE58229F582E5833AF583E8F003
:10083B00225006E92582C8F622BBFE05E92582C8AF
:02084B00F22297
:10084D00EF8DF0A4A8F0CF8CF0A428CE8DF0A42EBF
:02085D00FE2279
:10085F00BC000BBE0029EF8DF084FFADF022E4CC7D
:10086F00F875F008EF2FFFEE33FEEC33FCEE9DEC46
:10087F00984005FCEE9DFE0FD5F0E9E4CEFD22ED8C
:10088F00F8F5F0EE8420D21CFEADF075F008EF2FD6
:10089F00FFED33FD4007985006D5F0F222C398FDC7
:0508AF000FD5F0EA2264
:1008B400E8600FECC313FCED13FDEE13FEEF13FF22
:0308C400D8F12246
:10098400020A04E493A3F8E493A34003F68001F27B
:1009940008DFF48029E493A3F85407240CC8C33374
:1009A400C4540F4420C8834004F456800146F6DF43
:1009B400E4800B0102040810204080900BEBE47EDD
:1009C400019360BCA3FF543F30E509541FFEE49338
:1009D400A360010ECF54C025E060A840B8E493A3FF
:1009E400FAE493A3F8E493A3C8C582C8CAC583CA2A
:1009F400F0A3C8C582C8CAC583CADFE9DEE780BEE2
:010C010000F2
:00000001FF
