:1009EB000D0A456E74657220496E7075742D313A1F
:1009FB0020000D0A456E74657220496E7075742D5A
:100A0B00323A20000D0A5052494D450D0A000D0A8D
:0C0A1B004E4F54205052494D450D0A002A
:100A2700C100C102C1010112000218000002080042
:100A370000020C0000020E00000213000002150065
:090A470000020A00000210000088
:0C0AD20075C33F43B104D2AF43C34022C0
:0C0ADE0075C32F43B104D2AF43C34022C4
:0C0AEA0075C33F43B104D2AF43C34022A8
:06094B00EE3395E0FDFC17
:080951008F1D8E1C8D1B8C1AFA
:10095900C20078101209D8E48FC53000FDA917C26A
:1009690000AF1DAE1CAD1BAC1A78081209D88FC593
:100979003000FDAB17C200E51DFF8FC53000FDAD8E
:1009890017EB7B00FA7E00E97810C333CE33CED85B
:10099900F92BFFEE3AFE7C00EF2DFFEC3EFE33957E
:0309A900E0FDFC72
:0109AC002228
:03004B00020A9C0A
:100A9C00C0E0C0D0E5C454F02480700585C517D2E1
:060AAC0000D0D0D0E032C2
:100AB200758920758DCC759850D28ED2ACD2AF226A
:080B00008F993002FDC20222B0
:100A77008B1A8A1B891CAB1AAA1BA91C1209AD6009
:100A870013051CE51C7002051B14F91209ADFF12B2
:050A97000B0080E222CB
:090AF600E4FF3001FDC201AF99DB
:010AFF0022D4
:03002300020AC20C
:100AC200309905C299D20232309804C298D20132CA
:060A5100D2947FF47E0147
:100A5700E4FDFCC3ED9FEC9E5015E4FBFA0BBB00D5
:0F0A6700010ABA01F8BB7EF50DBD00010C80E459
:010A7600225D
:10080000120AD2120AB27BFF7A0979EB120A771226
:100810000AF68F12E512642E6024AE18AF197C0020
:100820007D0A1209C68E188F19E51224D0FFE43410
:10083000FFFEEF2519F519EE3518F51880D17BFF6D
:100840007A0979FD120A77120AF68F12E512642EE0
:100850006024AE08AF097C007D0A1209C68E088F9D
:1008600009E51224D0FFE434FFFEEF2509F509EE77
:100870003508F50880D1C294AE18AF1912094B1291
:100880000A51C294AE08AF0912094B120A517F00F7
:100890001E7D007C001209518E108F11E51164013C
:1008A000451070087BFF7A0A790F800EE51164020B
:0F08B000451070097BFF7A0A7919120A7780FECA
:030000000208BF34
:0C08BF00787FE4F6D8FD75812002090660
:1008CB00020800E493A3F8E493A34003F68001F23B
:1008DB0008DFF48029E493A3F85407240CC8C3332E
:1008EB00C4540F4420C8834004F456800146F6DFFD
:1008FB00E4800B0102040810204080900A27E47E5C
:10090B00019360BCA3FF543F30E509541FFEE493F1
:10091B00A360010ECF54C025E060A840B8E493A3B8
:10092B00FAE493A3F8E493A3C8C582C8CAC583CAE3
:10093B00F0A3C8C582C8CAC583CADFE9DEE780BE9B
:010A500000A5
:1009AD00BB010689828A83E0225002E722BBFE0248
:0909BD00E32289828A83E493227B
:1009C600EF8DF0A4A8F0CF8CF0A428CE8DF0A42E45
:0209D600FE22FF
:1009D800E8600FECC313FCED13FDEE13FEEF13FFFD
:0309E800D8F12221
:00000001FF
