:03000000020C5699
:0C0C5600787FE4F6D8FD758160020C9DEB
:100800000A0D20456E746572204C6F67696E204931
:10081000443A20000A0D20456E74657220506173C1
:1008200073776F72643A20000D0A20496E76616C0E
:100830006964210D0A000D0A2056616C6964210D5E
:100840000A000D0A20436170746368613A20000D4C
:100850000A20496E70757420436170746368613A50
:1008600020000D0A0A20436170746368612056619C
:100870006C69642120000D0A20496E76616C696400
:1008800021200A000D0A0A20557365722077616CD9
:100890006C65742062616C616E63653A2052732EE0
:1008A00020000D0A000D0A20417661696C61626CBE
:1008B0006520547261696E733A000D0A203120522E
:1008C000616A6468616E692045787072657373202F
:1008D0002D2052732E2031353030000D0A20322069
:1008E0004368656E6E616920457870726573732028
:1008F0002D2052732E2031303030000D0A2033204D
:1009000048617061204475726F6E746F202D2052A3
:10091000732E203132303020000D0A0A20456E74CB
:10092000657220547261696E204E6F2E3A20000D60
:100930000A20496E76616C696420547261696E2088
:100940004E6F2E0D0A000D0A20456E746572206EE2
:10095000756D626572206F662070617373656E6776
:1009600065727320286D61782034293A20000D0AC1
:10097000204D61782E20342070617373656E676539
:10098000727320616C6C6F7765642E200D0A000D08
:100990000A20546F74616C20436F73743A20527351
:1009A0002E20000D0A20436F6E6669726D20547808
:1009B0006E2028792F6E293A20000D0A2054786E77
:1009C000206661696C65640D0A000D0A20496E7627
:1009D000616C696420696E7075740D0A000D0A20DF
:1009E00054786E206661696C65643A20496E73754F
:1009F0006666696369656E742042616C616E6365E9
:100A00000D0A000D0A20426F6F6B696E67205375E7
:0B0A1000636365737366756C0D0A006C
:100F7800C101C10006466D726964756C08596D72CD
:100F8800696433393333064E303030303030082717
:100F980030303030303030300338303030043400C6
:100FA800000F5D0331303030044100001388062102
:060FB80005DC03E804B0B3
:10117500758920758DCC759850D28ED2ACD2AF22A0
:08119F008F993001FDC201220D
:10111E008B108A118912AB10AA11A912120A1B6028
:10112E00130512E5127002051114F9120A1BFF12B3
:05113E00119F80E22278
:09119500E4FF3000FDC200AF9937
:01119E00222E
:0300230002118542
:10118500309905C299D20132309804C298D2003202
:100D6D008F138E128D118C108B148A158916E47BBE
:100D7D0064FAF9F8120B05EF2430AB14AA15A91675
:100D8D00120A34E47B64FAF9F8AF13AE12AD11AC6C
:100D9D0010120B05AC00AD01AE02AF03E47B0AFAF5
:100DAD00F9F8120B05EF2430AB14AA15A916900013
:100DBD0001120A46E47B0AFAF9F8AF13AE12AD112F
:100DCD00AC10120B05EB2430AB14AA15A91690002C
:0B0DDD0002120A46900003E4020A46DE
:100BA8008F108E0F8D0E8C0D8B118A128913E47B9A
:100BB800E87A03F9F8120B05EF2430AB11AA12A951
:100BC80013120A34E47BE87A03F9F8AF10AE0FADDC
:100BD8000EAC0D120B05AC00AD01AE02AF03E47B09
:100BE80064FAF9F8120B05EF2430AB11AA12A91315
:100BF800900001120A46E47B64FAF9F8AF10AE0FD0
:100C0800AD0EAC0D120B05AC00AD01AE02AF03E4A6
:100C18007B0AFAF9F8120B05EF2430AB11AA12A9D6
:100C280013900002120A46E47B0AFAF9F8AF10AEF4
:100C38000FAD0EAC0D120B05EB2430AB11AA12A9A7
:0E0C480013900003120A46900004E4020A46CC
:100CE2001211757BFF7A08790012111EE4F554F592
:100CF200551211958F45744E2555F8A6450555E5B3
:100D02005570020554C39406E5546480948040E112
:100D12007BFF7A08791412111EE4F556F557121169
:100D2200958F4574272557F8A6450557E557700254
:100D32000556C39408E5566480948040E1120E5F24
:100D420012115FE5306401452F7098120DE8E540FD
:100D52006401453F708D1210C61210991210F212E2
:0B0D62001037120FBF120F27020CE524
:100E5F00E4F554F555AF5574462FF8E6FE744E2F52
:100E6F00F8E6B50608752F007530018007E4F52FF9
:100E7F00F530800E0555E55570020554640645544E
:100E8F0070D3E5306401452F7030F556F557AF57E5
:100E9F0074592FF8E6FE74272FF8E6B50608752F5C
:100EAF00007530018006E4F52FF530220557E55720
:0B0EBF00700205566408455670D422EE
:10115F00E530452F7BFF70067A08792880047A08DE
:06116F00793612111E2268
:100DE800E4750BB4750A04F509F508750FE9750E75
:100DF80007F50DF50CAF37AE36AD35AC34FB7A00E0
:100E08007931120D6D7BFF7A08794212111E7B0031
:100E18007A00793112111EAF0BAE0AAD09AC08ABDE
:100E280037AA36A935A834120A7AEF250FFFEE350E
:100E38000EFEED350DFDEC350CFCE47BE87A03F98C
:100E4800F8120B05AC00AD01AE02AF038F378E363A
:070E58008D358C3402106996
:101069007BFF7A08794F12111EE4F554F5551211D8
:10107900958F4574382555F8A6450555E5557002EF
:101089000554C39403E5546480948040E10210023E
:10100200E4F554F555AF5574312FF8E6FE74382FD8
:10101200F8E6B50608753F007540018007E4F53F24
:10102200F540800E0555E55570020554640345549C
:0510320070D302114320
:10114300E5406401453F7BFF70077A08796202112D
:0C1153001E7A08797612111E120DE82297
:1010C600AF44AE43AD42AC417B007A007908120BC7
:1010D600A87BFF7A08798412111E7B007A007908B2
:0C10E60012111E7BFF7A0879A202111E75
:101099007BFF7A0879A512111E7BFF7A0879BA12AB
:1010A900111E7BFF7A0879DB12111E7BFF7A087902
:0D10B900FB12111E7BFF7A09791902111E2E
:1010F2001211958F45E54524D0F54DC39401400763
:10110200E54DD39403400F7BFF7A09792F12111E0C
:0C1112001210990210F2AF4512119F223A
:101037007BFF7A09794612111E1211958F45E545F6
:1010470024D0F54CC394014007E54CD39404400CDD
:101057007BFF7A09796E12111E021037AF45121104
:021067009F22C6
:100FBF00E54D25E0241FF8E6FC08E6FDAF4C7E006A
:100FCF00120A68E48F3E8E3DF53CF53BAD3CAC3BE1
:100FDF00FB7A007908120BA87BFF7A09798F12111F
:100FEF001E7B007A00790812111E7BFF7A0879A206
:030FFF0002111EBE
:100F27007BFF7A0979A312111E1211958F4585450A
:100F37005812119FE55864796005E558B4590302C2
:100F47000ECAE558646E6005E558B44E177BFF7A04
:100F57000979BA12111E1210991210F212103712D3
:100F67000FBF80097BFF7A0979CA12111E120F275A
:010F77002257
:100ECA00AF3EAE3DAD3CAC3BAB44AA43A942A841C0
:100EDA00C3120B9750187BFF7A0979DD12111E1283
:100EEA0010991210F2121037120FBF020F27C3E522
:100EFA0044953EF544E543953DF543E542953CF579
:100F0A0042E541953BF5417BFF7A0A790312111EAE
:0D0F1A001210C6E4F52FF530F53FF540222A
:100C6200020CE2E493A3F8E493A34003F68001F2BA
:100C720008DFF48029E493A3F85407240CC8C33393
:100C8200C4540F4420C8834004F456800146F6DF62
:100C9200E4800B0102040810204080900F78E47E6B
:100CA200019360BCA3FF543F30E509541FFEE49357
:100CB200A360010ECF54C025E060A840B8E493A31E
:100CC200FAE493A3F8E493A3C8C582C8CAC583CA49
:100CD200F0A3C8C582C8CAC583CADFE9DEE780BE01
:010FBE000032
:100A1B00BB010689828A83E0225002E722BBFE02D9
:090A2B00E32289828A83E493220C
:100A3400BB010689828A83F0225002F722BBFE01A1
:020A4400F3229B
:100A4600F8BB010DE58229F582E5833AF583E8F0E6
:100A5600225006E92582C8F622BBFE05E92582C892
:020A6600F2227A
:100A6800EF8DF0A4A8F0CF8CF0A428CE8DF0A42EA2
:020A7800FE225C
:100A7A00E88FF0A4CC8BF0A42CFCE98EF0A42CFC1B
:100A8A008AF0EDA42CFCEA8EF0A4CDA8F08BF0A499
:100A9A002DCC3825F0FDE98FF0A42CCD35F0FCEBF8
:100AAA008EF0A4FEA9F0EB8FF0A4CFC5F02ECD39BD
:0F0ABA00FEE43CFCEAA42DCE35F0FDE43CFC222A
:100AC90075F008758200EF2FFFEE33FECD33CDCCE4
:100AD90033CCC58233C5829BED9AEC99E582984067
:100AE9000CF582EE9BFEED9AFDEC99FC0FD5F0D644
:100AF900E4CEFBE4CDFAE4CCF9A88222B800C1B96E
:100B09000059BA002DEC8BF084CFCECDFCE5F0CBAB
:100B1900F97818EF2FFFEE33FEED33FDEC33FCEBE4
:100B290033FB10D703994004EB99FB0FD8E5E4F99F
:100B3900FA227818EF2FFFEE33FEED33FDEC33FC8C
:100B4900C933C910D7059BE99A4007EC9BFCE99A80
:100B5900F90FD8E0E4C9FAE4CCFB2275F010EF2FC5
:100B6900FFEE33FEED33FDCC33CCC833C810D707C5
:100B79009BEC9AE899400AED9BFDEC9AFCE899F800
:0E0B89000FD5F0DAE4CDFBE4CCFAE4C8F92293
:100B9700EB9FF5F0EA9E42F0E99D42F0E89C45F0B4
:010BA700222B
:00000001FF
